{
  "transactions": [
    {
      "hash": "0xd1d9d7e96c40cd6b257e10bca3959660dc9ab90df68531d297e76d0d27fcc60c",
      "transactionType": "CALL",
      "contractName": "VaultConfigurator",
      "contractAddress": "0x382e9c6ff81f07a566a8b0a3622dc85c47a891df",
      "function": "create((uint64,address,bytes,uint64,bytes,bool,uint64,bytes))",
      "arguments": [
        "(1, 0xD0d7F8a5a86d8271ff87ff24145Cf40CEa9F7A39, 0x0000000000000000000000001c495d4d20444eb78e0026335cd5cfbd805ced12000000000000000000000000000000000000000000000000000000000000dead000000000000000000000000000000000000000000000000000000000000a455000000000000000000000000000000000000000000000000000000000000000000000000000000000000000000000000000000000000000000000000000000000000000000000000000000000000000000000000000000000000000000000000000000000000000000000000d0d7f8a5a86d8271ff87ff24145cf40cea9f7a39000000000000000000000000d0d7f8a5a86d8271ff87ff24145cf40cea9f7a39000000000000000000000000d0d7f8a5a86d8271ff87ff24145cf40cea9f7a39000000000000000000000000d0d7f8a5a86d8271ff87ff24145cf40cea9f7a39000000000000000000000000d0d7f8a5a86d8271ff87ff24145cf40cea9f7a39, 0, 0x0000000000000000000000000000000000000000000000000000000000000020000000000000000000000000d0d7f8a5a86d8271ff87ff24145cf40cea9f7a390000000000000000000000000000000000000000000000000000000000000000000000000000000000000000d0d7f8a5a86d8271ff87ff24145cf40cea9f7a3900000000000000000000000000000000000000000000000000000000000000a000000000000000000000000000000000000000000000000000000000000000e00000000000000000000000000000000000000000000000000000000000000001000000000000000000000000d0d7f8a5a86d8271ff87ff24145cf40cea9f7a390000000000000000000000000000000000000000000000000000000000000001000000000000000000000000d0d7f8a5a86d8271ff87ff24145cf40cea9f7a39, false, 1, 0x00000000000000000000000000000000000000000000000000000000000186a00000000000000000000000000000000000000000000000000000000000000003)"
      ],
      "transaction": {
        "from": "0xd0d7f8a5a86d8271ff87ff24145cf40cea9f7a39",
        "to": "0x382e9c6ff81f07a566a8b0a3622dc85c47a891df",
        "gas": "0x14a1e1",
        "value": "0x0",
        "input": "0xc48927e400000000000000000000000000000000000000000000000000000000000000200000000000000000000000000000000000000000000000000000000000000001000000000000000000000000d0d7f8a5a86d8271ff87ff24145cf40cea9f7a390000000000000000000000000000000000000000000000000000000000000100000000000000000000000000000000000000000000000000000000000000000000000000000000000000000000000000000000000000000000000000000002800000000000000000000000000000000000000000000000000000000000000000000000000000000000000000000000000000000000000000000000000000000100000000000000000000000000000000000000000000000000000000000003e000000000000000000000000000000000000000000000000000000000000001600000000000000000000000001c495d4d20444eb78e0026335cd5cfbd805ced12000000000000000000000000000000000000000000000000000000000000dead000000000000000000000000000000000000000000000000000000000000a455000000000000000000000000000000000000000000000000000000000000000000000000000000000000000000000000000000000000000000000000000000000000000000000000000000000000000000000000000000000000000000000000000000000000000000000000d0d7f8a5a86d8271ff87ff24145cf40cea9f7a39000000000000000000000000d0d7f8a5a86d8271ff87ff24145cf40cea9f7a39000000000000000000000000d0d7f8a5a86d8271ff87ff24145cf40cea9f7a39000000000000000000000000d0d7f8a5a86d8271ff87ff24145cf40cea9f7a39000000000000000000000000d0d7f8a5a86d8271ff87ff24145cf40cea9f7a3900000000000000000000000000000000000000000000000000000000000001400000000000000000000000000000000000000000000000000000000000000020000000000000000000000000d0d7f8a5a86d8271ff87ff24145cf40cea9f7a390000000000000000000000000000000000000000000000000000000000000000000000000000000000000000d0d7f8a5a86d8271ff87ff24145cf40cea9f7a3900000000000000000000000000000000000000000000000000000000000000a000000000000000000000000000000000000000000000000000000000000000e00000000000000000000000000000000000000000000000000000000000000001000000000000000000000000d0d7f8a5a86d8271ff87ff24145cf40cea9f7a390000000000000000000000000000000000000000000000000000000000000001000000000000000000000000d0d7f8a5a86d8271ff87ff24145cf40cea9f7a39000000000000000000000000000000000000000000000000000000000000004000000000000000000000000000000000000000000000000000000000000186a00000000000000000000000000000000000000000000000000000000000000003",
        "nonce": "0xfe",
        "chainId": "0x4268"
      },
      "additionalContracts": [
        {
          "transactionType": "CREATE2",
          "address": "0x4ff273acc4210e7e6ed842e04298bebd44a1a111",
          "initCode": "0x604060a0815234610204576106098038038061001a81610209565b92833981019082818303126102045780516001600160a01b0392838216918281036102045760208481015190946001600160401b038211610204570182601f820112156102045780519061007561007083610244565b610209565b9382855286838301011161020457859060005b8381106101f057505060009184010152803b156101d8577f360894a13ba1a3210667c828492db98dca3e2076cc3735a920a3ca505d382bbc80546001600160a01b03199081168517909155927fbc7cd75a20ee27fd9adebab32041f755214dbc6bffa90cc0225b39da2e5c2d3b600080a2815191849083156101cf5761013493600092839201845af43d156101c7573d9161012561007084610244565b9283523d60008785013e61025f565b505b336080527f7e644d79422f17c01e4894b5f4f588d331ebfa28653d42ae832dc59e38c9798f847fb53127684a568b3173ae13b9f8a6016e243e63b6e8ee1178d6a717850b5d610394855494825191861682523390820152a133156101af5716331790555161034690816102c38239608051816101030152f35b8351633173bdd160e11b815260006004820152602490fd5b60609161025f565b50505050610136565b8551634c9c8ce360e01b815260048101849052602490fd5b818101830151868201840152879201610088565b600080fd5b6040519190601f01601f191682016001600160401b0381118382101761022e57604052565b634e487b7160e01b600052604160045260246000fd5b6001600160401b03811161022e57601f01601f191660200190565b90610286575080511561027457805190602001fd5b604051630a12f52160e11b8152600490fd5b815115806102b9575b610297575090565b604051639996b31560e01b81526001600160a01b039091166004820152602490fd5b50803b1561028f56fe60806040526004361061020d576000803560e01c634f1ef28614610023575061020d565b34610097576040366003190112610097576004356001600160a01b0381168103610093576024359067ffffffffffffffff9081831161008f573660238401121561008f57826004013591821161008f57366024838501011161008f57602461008c9301906100f7565b80f35b8380fd5b5080fd5b80fd5b634e487b7160e01b600052604160045260246000fd5b6040519190601f01601f1916820167ffffffffffffffff8111838210176100d657604052565b61009a565b67ffffffffffffffff81116100d657601f01601f191660200190565b916001600160a01b03907f0000000000000000000000000000000000000000000000000000000000000000821633036101fb5761013b610136826100db565b6100b0565b9281845236828201116101f657816000926020928387013784010152823b156101dc5782167f360894a13ba1a3210667c828492db98dca3e2076cc3735a920a3ca505d382bbc816bffffffffffffffffffffffff60a01b8254161790557fbc7cd75a20ee27fd9adebab32041f755214dbc6bffa90cc0225b39da2e5c2d3b600080a28051156101d0576101cd91610272565b50565b50506101da610259565b565b604051634c9c8ce360e01b81529083166004820152602490fd5b600080fd5b6040516334ad5dbb60e21b8152600490fd5b7f360894a13ba1a3210667c828492db98dca3e2076cc3735a920a3ca505d382bbc54600090819081906001600160a01b0316368280378136915af43d82803e15610255573d90f35b3d90fd5b3461026057565b60405163b398979f60e01b8152600490fd5b6000806102a693602081519101845af43d156102a9573d91610296610136846100db565b9283523d6000602085013e6102ad565b90565b6060915b906102d457508051156102c257805190602001fd5b604051630a12f52160e11b8152600490fd5b81511580610307575b6102e5575090565b604051639996b31560e01b81526001600160a01b039091166004820152602490fd5b50803b156102dd56fea26469706673582212205a5f49d422d131052c91a6c919c266a5a9dbbbc528357ad5e61dfafd09715f1e64736f6c6343000819003300000000000000000000000010b06268a1d367c3c0db75167a7c48b08875992f000000000000000000000000000000000000000000000000000000000000004000000000000000000000000000000000000000000000000000000000000001e457ec83cc0000000000000000000000000000000000000000000000000000000000000001000000000000000000000000d0d7f8a5a86d8271ff87ff24145cf40cea9f7a39000000000000000000000000000000000000000000000000000000000000006000000000000000000000000000000000000000000000000000000000000001600000000000000000000000001c495d4d20444eb78e0026335cd5cfbd805ced12000000000000000000000000000000000000000000000000000000000000dead000000000000000000000000000000000000000000000000000000000000a455000000000000000000000000000000000000000000000000000000000000000000000000000000000000000000000000000000000000000000000000000000000000000000000000000000000000000000000000000000000000000000000000000000000000000000000000d0d7f8a5a86d8271ff87ff24145cf40cea9f7a39000000000000000000000000d0d7f8a5a86d8271ff87ff24145cf40cea9f7a39000000000000000000000000d0d7f8a5a86d8271ff87ff24145cf40cea9f7a39000000000000000000000000d0d7f8a5a86d8271ff87ff24145cf40cea9f7a39000000000000000000000000d0d7f8a5a86d8271ff87ff24145cf40cea9f7a3900000000000000000000000000000000000000000000000000000000"
        },
        {
          "transactionType": "CREATE2",
          "address": "0xf1632dae0746cb5dab07b796c9b4f52f54c518bd",
          "initCode": "0x3d602d80600a3d3981f3363d3d373d3d3d363d735953f92f8e797738bfb35677682dcdae9536bbcc5af43d82803e903d91602b57fd5bf3"
        }
      ],
      "isFixedGasLimit": false
    }
  ],
  "receipts": [
    {
      "status": "0x1",
      "cumulativeGasUsed": "0x6b05eb",
      "logs": [
        {
          "address": "0x4ff273acc4210e7e6ed842e04298bebd44a1a111",
          "topics": [
            "0xbc7cd75a20ee27fd9adebab32041f755214dbc6bffa90cc0225b39da2e5c2d3b",
            "0x00000000000000000000000010b06268a1d367c3c0db75167a7c48b08875992f"
          ],
          "data": "0x",
          "blockHash": "0x29291d9c3121a72cf9b80407cca81ccc97a426bf3c256f0af4765aa3991369ea",
          "blockNumber": "0x26267e",
          "transactionHash": "0xd1d9d7e96c40cd6b257e10bca3959660dc9ab90df68531d297e76d0d27fcc60c",
          "transactionIndex": "0x18",
          "logIndex": "0x43",
          "removed": false
        },
        {
          "address": "0x4ff273acc4210e7e6ed842e04298bebd44a1a111",
          "topics": [
            "0x8be0079c531659141344cd1fd0a4f28419497f9722a3daafe3b4186f6b6457e0",
            "0x0000000000000000000000000000000000000000000000000000000000000000",
            "0x000000000000000000000000d0d7f8a5a86d8271ff87ff24145cf40cea9f7a39"
          ],
          "data": "0x",
          "blockHash": "0x29291d9c3121a72cf9b80407cca81ccc97a426bf3c256f0af4765aa3991369ea",
          "blockNumber": "0x26267e",
          "transactionHash": "0xd1d9d7e96c40cd6b257e10bca3959660dc9ab90df68531d297e76d0d27fcc60c",
          "transactionIndex": "0x18",
          "logIndex": "0x44",
          "removed": false
        },
        {
          "address": "0x4ff273acc4210e7e6ed842e04298bebd44a1a111",
          "topics": [
            "0x2f8788117e7eff1d82e926ec794901d17c78024a50270940304540a733656f0d",
            "0x0000000000000000000000000000000000000000000000000000000000000000",
            "0x000000000000000000000000d0d7f8a5a86d8271ff87ff24145cf40cea9f7a39",
            "0x00000000000000000000000018c659a269a7172ef78bbc19fe47ad2237be0590"
          ],
          "data": "0x",
          "blockHash": "0x29291d9c3121a72cf9b80407cca81ccc97a426bf3c256f0af4765aa3991369ea",
          "blockNumber": "0x26267e",
          "transactionHash": "0xd1d9d7e96c40cd6b257e10bca3959660dc9ab90df68531d297e76d0d27fcc60c",
          "transactionIndex": "0x18",
          "logIndex": "0x45",
          "removed": false
        },
        {
          "address": "0x4ff273acc4210e7e6ed842e04298bebd44a1a111",
          "topics": [
            "0x2f8788117e7eff1d82e926ec794901d17c78024a50270940304540a733656f0d",
            "0xbae4ee3de6c709ff9a002e774c5b78cb381560b219213c88ae0f1e207c03c023",
            "0x000000000000000000000000d0d7f8a5a86d8271ff87ff24145cf40cea9f7a39",
            "0x00000000000000000000000018c659a269a7172ef78bbc19fe47ad2237be0590"
          ],
          "data": "0x",
          "blockHash": "0x29291d9c3121a72cf9b80407cca81ccc97a426bf3c256f0af4765aa3991369ea",
          "blockNumber": "0x26267e",
          "transactionHash": "0xd1d9d7e96c40cd6b257e10bca3959660dc9ab90df68531d297e76d0d27fcc60c",
          "transactionIndex": "0x18",
          "logIndex": "0x46",
          "removed": false
        },
        {
          "address": "0x4ff273acc4210e7e6ed842e04298bebd44a1a111",
          "topics": [
            "0x2f8788117e7eff1d82e926ec794901d17c78024a50270940304540a733656f0d",
            "0x9c56d972d63cbb4195b3c1484691dfc220fa96a4c47e7b6613bd82a022029e06",
            "0x000000000000000000000000d0d7f8a5a86d8271ff87ff24145cf40cea9f7a39",
            "0x00000000000000000000000018c659a269a7172ef78bbc19fe47ad2237be0590"
          ],
          "data": "0x",
          "blockHash": "0x29291d9c3121a72cf9b80407cca81ccc97a426bf3c256f0af4765aa3991369ea",
          "blockNumber": "0x26267e",
          "transactionHash": "0xd1d9d7e96c40cd6b257e10bca3959660dc9ab90df68531d297e76d0d27fcc60c",
          "transactionIndex": "0x18",
          "logIndex": "0x47",
          "removed": false
        },
        {
          "address": "0x4ff273acc4210e7e6ed842e04298bebd44a1a111",
          "topics": [
            "0x2f8788117e7eff1d82e926ec794901d17c78024a50270940304540a733656f0d",
            "0xc6aaadd7371d5e8f9ed6849dd66a66573a3ba37167d03f4352c9ba5693678fac",
            "0x000000000000000000000000d0d7f8a5a86d8271ff87ff24145cf40cea9f7a39",
            "0x00000000000000000000000018c659a269a7172ef78bbc19fe47ad2237be0590"
          ],
          "data": "0x",
          "blockHash": "0x29291d9c3121a72cf9b80407cca81ccc97a426bf3c256f0af4765aa3991369ea",
          "blockNumber": "0x26267e",
          "transactionHash": "0xd1d9d7e96c40cd6b257e10bca3959660dc9ab90df68531d297e76d0d27fcc60c",
          "transactionIndex": "0x18",
          "logIndex": "0x48",
          "removed": false
        },
        {
          "address": "0x4ff273acc4210e7e6ed842e04298bebd44a1a111",
          "topics": [
            "0x2f8788117e7eff1d82e926ec794901d17c78024a50270940304540a733656f0d",
            "0x4a634bc14d77baf979756509ef4298c6f6318af357828612545267ee2eb79233",
            "0x000000000000000000000000d0d7f8a5a86d8271ff87ff24145cf40cea9f7a39",
            "0x00000000000000000000000018c659a269a7172ef78bbc19fe47ad2237be0590"
          ],
          "data": "0x",
          "blockHash": "0x29291d9c3121a72cf9b80407cca81ccc97a426bf3c256f0af4765aa3991369ea",
          "blockNumber": "0x26267e",
          "transactionHash": "0xd1d9d7e96c40cd6b257e10bca3959660dc9ab90df68531d297e76d0d27fcc60c",
          "transactionIndex": "0x18",
          "logIndex": "0x49",
          "removed": false
        },
        {
          "address": "0x4ff273acc4210e7e6ed842e04298bebd44a1a111",
          "topics": [
            "0xc7f505b2f371ae2175ee4913f4499e1f2633a7b5936321eed1cdaeb6115181d2"
          ],
          "data": "0x0000000000000000000000000000000000000000000000000000000000000001",
          "blockHash": "0x29291d9c3121a72cf9b80407cca81ccc97a426bf3c256f0af4765aa3991369ea",
          "blockNumber": "0x26267e",
          "transactionHash": "0xd1d9d7e96c40cd6b257e10bca3959660dc9ab90df68531d297e76d0d27fcc60c",
          "transactionIndex": "0x18",
          "logIndex": "0x4a",
          "removed": false
        },
        {
          "address": "0x4ff273acc4210e7e6ed842e04298bebd44a1a111",
          "topics": [
            "0x7e644d79422f17c01e4894b5f4f588d331ebfa28653d42ae832dc59e38c9798f"
          ],
          "data": "0x000000000000000000000000000000000000000000000000000000000000000000000000000000000000000018c659a269a7172ef78bbc19fe47ad2237be0590",
          "blockHash": "0x29291d9c3121a72cf9b80407cca81ccc97a426bf3c256f0af4765aa3991369ea",
          "blockNumber": "0x26267e",
          "transactionHash": "0xd1d9d7e96c40cd6b257e10bca3959660dc9ab90df68531d297e76d0d27fcc60c",
          "transactionIndex": "0x18",
          "logIndex": "0x4b",
          "removed": false
        },
        {
          "address": "0x18c659a269a7172ef78bbc19fe47ad2237be0590",
          "topics": [
            "0xb919910dcefbf753bfd926ab3b1d3f85d877190c3d01ba1bd585047b99b99f0b",
            "0x0000000000000000000000004ff273acc4210e7e6ed842e04298bebd44a1a111"
          ],
          "data": "0x",
          "blockHash": "0x29291d9c3121a72cf9b80407cca81ccc97a426bf3c256f0af4765aa3991369ea",
          "blockNumber": "0x26267e",
          "transactionHash": "0xd1d9d7e96c40cd6b257e10bca3959660dc9ab90df68531d297e76d0d27fcc60c",
          "transactionIndex": "0x18",
          "logIndex": "0x4c",
          "removed": false
        },
        {
          "address": "0xde2ad96117b48bd614a9ed8ff6bcf5d7eb815596",
          "topics": [
            "0xb919910dcefbf753bfd926ab3b1d3f85d877190c3d01ba1bd585047b99b99f0b",
            "0x000000000000000000000000f1632dae0746cb5dab07b796c9b4f52f54c518bd"
          ],
          "data": "0x",
          "blockHash": "0x29291d9c3121a72cf9b80407cca81ccc97a426bf3c256f0af4765aa3991369ea",
          "blockNumber": "0x26267e",
          "transactionHash": "0xd1d9d7e96c40cd6b257e10bca3959660dc9ab90df68531d297e76d0d27fcc60c",
          "transactionIndex": "0x18",
          "logIndex": "0x4d",
          "removed": false
        },
        {
          "address": "0xf1632dae0746cb5dab07b796c9b4f52f54c518bd",
          "topics": [
            "0x2f8788117e7eff1d82e926ec794901d17c78024a50270940304540a733656f0d",
            "0x008b9b1e5fa9cf3b14f87f435649268146305ddf689f082e5961a335b07a9abf",
            "0x000000000000000000000000d0d7f8a5a86d8271ff87ff24145cf40cea9f7a39",
            "0x000000000000000000000000de2ad96117b48bd614a9ed8ff6bcf5d7eb815596"
          ],
          "data": "0x",
          "blockHash": "0x29291d9c3121a72cf9b80407cca81ccc97a426bf3c256f0af4765aa3991369ea",
          "blockNumber": "0x26267e",
          "transactionHash": "0xd1d9d7e96c40cd6b257e10bca3959660dc9ab90df68531d297e76d0d27fcc60c",
          "transactionIndex": "0x18",
          "logIndex": "0x4e",
          "removed": false
        },
        {
          "address": "0xf1632dae0746cb5dab07b796c9b4f52f54c518bd",
          "topics": [
            "0x2f8788117e7eff1d82e926ec794901d17c78024a50270940304540a733656f0d",
            "0x1312a1cf530e56add9be4fd84db9051dcc7635952f09f735f9a29405b5584625",
            "0x000000000000000000000000d0d7f8a5a86d8271ff87ff24145cf40cea9f7a39",
            "0x000000000000000000000000de2ad96117b48bd614a9ed8ff6bcf5d7eb815596"
          ],
          "data": "0x",
          "blockHash": "0x29291d9c3121a72cf9b80407cca81ccc97a426bf3c256f0af4765aa3991369ea",
          "blockNumber": "0x26267e",
          "transactionHash": "0xd1d9d7e96c40cd6b257e10bca3959660dc9ab90df68531d297e76d0d27fcc60c",
          "transactionIndex": "0x18",
          "logIndex": "0x4f",
          "removed": false
        },
        {
          "address": "0xf1632dae0746cb5dab07b796c9b4f52f54c518bd",
          "topics": [
            "0x2f8788117e7eff1d82e926ec794901d17c78024a50270940304540a733656f0d",
            "0x0000000000000000000000000000000000000000000000000000000000000000",
            "0x000000000000000000000000d0d7f8a5a86d8271ff87ff24145cf40cea9f7a39",
            "0x000000000000000000000000de2ad96117b48bd614a9ed8ff6bcf5d7eb815596"
          ],
          "data": "0x",
          "blockHash": "0x29291d9c3121a72cf9b80407cca81ccc97a426bf3c256f0af4765aa3991369ea",
          "blockNumber": "0x26267e",
          "transactionHash": "0xd1d9d7e96c40cd6b257e10bca3959660dc9ab90df68531d297e76d0d27fcc60c",
          "transactionIndex": "0x18",
          "logIndex": "0x50",
          "removed": false
        },
        {
          "address": "0xf1632dae0746cb5dab07b796c9b4f52f54c518bd",
          "topics": [
            "0x2f8788117e7eff1d82e926ec794901d17c78024a50270940304540a733656f0d",
            "0xd1c1f6fa6bf27d54c5e54c7c1dc6e5004d3c027ea1994fe68b29c1b51b69c36c",
            "0x000000000000000000000000d0d7f8a5a86d8271ff87ff24145cf40cea9f7a39",
            "0x000000000000000000000000de2ad96117b48bd614a9ed8ff6bcf5d7eb815596"
          ],
          "data": "0x",
          "blockHash": "0x29291d9c3121a72cf9b80407cca81ccc97a426bf3c256f0af4765aa3991369ea",
          "blockNumber": "0x26267e",
          "transactionHash": "0xd1d9d7e96c40cd6b257e10bca3959660dc9ab90df68531d297e76d0d27fcc60c",
          "transactionIndex": "0x18",
          "logIndex": "0x51",
          "removed": false
        },
        {
          "address": "0xf1632dae0746cb5dab07b796c9b4f52f54c518bd",
          "topics": [
            "0xc7f505b2f371ae2175ee4913f4499e1f2633a7b5936321eed1cdaeb6115181d2"
          ],
          "data": "0x0000000000000000000000000000000000000000000000000000000000000001",
          "blockHash": "0x29291d9c3121a72cf9b80407cca81ccc97a426bf3c256f0af4765aa3991369ea",
          "blockNumber": "0x26267e",
          "transactionHash": "0xd1d9d7e96c40cd6b257e10bca3959660dc9ab90df68531d297e76d0d27fcc60c",
          "transactionIndex": "0x18",
          "logIndex": "0x52",
          "removed": false
        },
        {
          "address": "0x4ff273acc4210e7e6ed842e04298bebd44a1a111",
          "topics": [
            "0xdb2160616f776a37b24808115554e79439bf26cccbbd4438190cc6d28e80ecd1",
            "0x000000000000000000000000f1632dae0746cb5dab07b796c9b4f52f54c518bd"
          ],
          "data": "0x",
          "blockHash": "0x29291d9c3121a72cf9b80407cca81ccc97a426bf3c256f0af4765aa3991369ea",
          "blockNumber": "0x26267e",
          "transactionHash": "0xd1d9d7e96c40cd6b257e10bca3959660dc9ab90df68531d297e76d0d27fcc60c",
          "transactionIndex": "0x18",
          "logIndex": "0x53",
          "removed": false
        },
        {
          "address": "0x4ff273acc4210e7e6ed842e04298bebd44a1a111",
          "topics": [
            "0xe7e4c932e03abddfe20f83af42c33627e816115c7ec2b168441f65dc14bfc3ba",
            "0x0000000000000000000000000000000000000000000000000000000000000000"
          ],
          "data": "0x",
          "blockHash": "0x29291d9c3121a72cf9b80407cca81ccc97a426bf3c256f0af4765aa3991369ea",
          "blockNumber": "0x26267e",
          "transactionHash": "0xd1d9d7e96c40cd6b257e10bca3959660dc9ab90df68531d297e76d0d27fcc60c",
          "transactionIndex": "0x18",
          "logIndex": "0x54",
          "removed": false
        }
      ],
      "logsBloom": "0x00000004001008000000000000000000600020010000880000800400000000000080000000000010000000a00000000000000800000000000000000000000000000000000200000000002000001002001001000000000018000010000002000000000000020000000200000000000808000002800000000000000000000002400040004000000800000900000002000002000800080080000000000012800020020000000000000000000000000000000000000200000020001022200080000000000020000000008000000000800000000400020404000301000000000020080420040000000800040090200000000000000000000000000200000000000000",
      "type": "0x2",
      "transactionHash": "0xd1d9d7e96c40cd6b257e10bca3959660dc9ab90df68531d297e76d0d27fcc60c",
      "transactionIndex": "0x18",
      "blockHash": "0x29291d9c3121a72cf9b80407cca81ccc97a426bf3c256f0af4765aa3991369ea",
      "blockNumber": "0x26267e",
      "gasUsed": "0xe1c17",
      "effectiveGasPrice": "0xb40442f",
      "blobGasUsed": "0x0",
      "from": "0xd0d7f8a5a86d8271ff87ff24145cf40cea9f7a39",
      "to": "0x382e9c6ff81f07a566a8b0a3622dc85c47a891df",
      "contractAddress": null
    }
  ],
  "libraries": [],
  "pending": [],
  "returns": {},
  "timestamp": 1728497946,
  "chain": 17000,
  "commit": "5996d26"
}